{
  "_format": "hh-sol-artifact-1",
  "contractName": "DiplomaRegistry",
  "sourceName": "contracts/DiplomaRegistry.sol",
  "abi": [
    {
      "inputs": [],
      "stateMutability": "nonpayable",
      "type": "constructor"
    },
    {
      "anonymous": false,
      "inputs": [
        {
          "indexed": true,
          "internalType": "bytes32",
          "name": "documentHash",
          "type": "bytes32"
        },
        {
          "indexed": false,
          "internalType": "string",
          "name": "ipfsCid",
          "type": "string"
        },
        {
          "indexed": true,
          "internalType": "address",
          "name": "institution",
          "type": "address"
        },
        {
          "indexed": false,
          "internalType": "string",
          "name": "recipientName",
          "type": "string"
        },
        {
          "indexed": false,
          "internalType": "string",
          "name": "degree",
          "type": "string"
        },
        {
          "indexed": false,
          "internalType": "uint256",
          "name": "timestamp",
          "type": "uint256"
        }
      ],
      "name": "DiplomaIssued",
      "type": "event"
    },
    {
      "anonymous": false,
      "inputs": [
        {
          "indexed": true,
          "internalType": "bytes32",
          "name": "documentHash",
          "type": "bytes32"
        },
        {
          "indexed": true,
          "internalType": "address",
          "name": "revokedBy",
          "type": "address"
        },
        {
          "indexed": false,
          "internalType": "uint256",
          "name": "timestamp",
          "type": "uint256"
        }
      ],
      "name": "DiplomaRevoked",
      "type": "event"
    },
    {
      "anonymous": false,
      "inputs": [
        {
          "indexed": true,
          "internalType": "address",
          "name": "institution",
          "type": "address"
        },
        {
          "indexed": false,
          "internalType": "string",
          "name": "name",
          "type": "string"
        }
      ],
      "name": "InstitutionAuthorized",
      "type": "event"
    },
    {
      "anonymous": false,
      "inputs": [
        {
          "indexed": true,
          "internalType": "address",
          "name": "institution",
          "type": "address"
        }
      ],
      "name": "InstitutionRevoked",
      "type": "event"
    },
    {
      "inputs": [
        {
          "internalType": "address",
          "name": "_institution",
          "type": "address"
        },
        {
          "internalType": "string",
          "name": "_name",
          "type": "string"
        }
      ],
      "name": "authorizeInstitution",
      "outputs": [],
      "stateMutability": "nonpayable",
      "type": "function"
    },
    {
      "inputs": [
        {
          "internalType": "address",
          "name": "",
          "type": "address"
        }
      ],
      "name": "authorizedInstitutions",
      "outputs": [
        {
          "internalType": "bool",
          "name": "",
          "type": "bool"
        }
      ],
      "stateMutability": "view",
      "type": "function"
    },
    {
      "inputs": [
        {
          "internalType": "string",
          "name": "_content",
          "type": "string"
        }
      ],
      "name": "hashDocument",
      "outputs": [
        {
          "internalType": "bytes32",
          "name": "",
          "type": "bytes32"
        }
      ],
      "stateMutability": "pure",
      "type": "function"
    },
    {
      "inputs": [
        {
          "internalType": "address",
          "name": "",
          "type": "address"
        }
      ],
      "name": "institutionNames",
      "outputs": [
        {
          "internalType": "string",
          "name": "",
          "type": "string"
        }
      ],
      "stateMutability": "view",
      "type": "function"
    },
    {
      "inputs": [
        {
          "internalType": "bytes32",
          "name": "_documentHash",
          "type": "bytes32"
        }
      ],
      "name": "isRegistered",
      "outputs": [
        {
          "internalType": "bool",
          "name": "",
          "type": "bool"
        }
      ],
      "stateMutability": "view",
      "type": "function"
    },
    {
      "inputs": [
        {
          "internalType": "bytes32",
          "name": "_documentHash",
          "type": "bytes32"
        },
        {
          "internalType": "string",
          "name": "_ipfsCid",
          "type": "string"
        },
        {
          "internalType": "string",
          "name": "_recipientName",
          "type": "string"
        },
        {
          "internalType": "string",
          "name": "_degree",
          "type": "string"
        }
      ],
      "name": "issueDiploma",
      "outputs": [],
      "stateMutability": "nonpayable",
      "type": "function"
    },
    {
      "inputs": [],
      "name": "owner",
      "outputs": [
        {
          "internalType": "address",
          "name": "",
          "type": "address"
        }
      ],
      "stateMutability": "view",
      "type": "function"
    },
    {
      "inputs": [
        {
          "internalType": "bytes32",
          "name": "_documentHash",
          "type": "bytes32"
        }
      ],
      "name": "revokeDiploma",
      "outputs": [],
      "stateMutability": "nonpayable",
      "type": "function"
    },
    {
      "inputs": [
        {
          "internalType": "address",
          "name": "_institution",
          "type": "address"
        }
      ],
      "name": "revokeInstitution",
      "outputs": [],
      "stateMutability": "nonpayable",
      "type": "function"
    },
    {
      "inputs": [],
      "name": "totalIssued",
      "outputs": [
        {
          "internalType": "uint256",
          "name": "",
          "type": "uint256"
        }
      ],
      "stateMutability": "view",
      "type": "function"
    },
    {
      "inputs": [],
      "name": "totalRevoked",
      "outputs": [
        {
          "internalType": "uint256",
          "name": "",
          "type": "uint256"
        }
      ],
      "stateMutability": "view",
      "type": "function"
    },
    {
      "inputs": [
        {
          "internalType": "bytes32",
          "name": "_documentHash",
          "type": "bytes32"
        }
      ],
      "name": "verifyDiploma",
      "outputs": [
        {
          "internalType": "bool",
          "name": "valid",
          "type": "bool"
        },
        {
          "internalType": "string",
          "name": "ipfsCid",
          "type": "string"
        },
        {
          "internalType": "address",
          "name": "institution",
          "type": "address"
        },
        {
          "internalType": "string",
          "name": "institutionName",
          "type": "string"
        },
        {
          "internalType": "uint256",
          "name": "issuedAt",
          "type": "uint256"
        },
        {
          "internalType": "bool",
          "name": "isRevoked",
          "type": "bool"
        },
        {
          "internalType": "string",
          "name": "recipientName",
          "type": "string"
        },
        {
          "internalType": "string",
          "name": "degree",
          "type": "string"
        }
      ],
      "stateMutability": "view",
      "type": "function"
    }
  ],
  "bytecode": "0x60806040523480156200001157600080fd5b50600080546001600160a01b031916339081178255808252600260209081526040808420805460ff1916600117905580518082018252600e81526d21b7b73a3930b1ba1027bbb732b960911b8184015292845260039091529091209062000079908262000125565b50620001f1565b634e487b7160e01b600052604160045260246000fd5b600181811c90821680620000ab57607f821691505b602082108103620000cc57634e487b7160e01b600052602260045260246000fd5b50919050565b601f8211156200012057600081815260208120601f850160051c81016020861015620000fb5750805b601f850160051c820191505b818110156200011c5782815560010162000107565b5050505b505050565b81516001600160401b0381111562000141576200014162000080565b620001598162000152845462000096565b84620000d2565b602080601f831160018114620001915760008415620001785750858301515b600019600386901b1c1916600185901b1785556200011c565b600085815260208120601f198616915b82811015620001c257888601518255948401946001909101908401620001a1565b5085821015620001e15787850151600019600388901b60f8161c191681555b5050505050600190811b01905550565b6112fe80620002016000396000f3fe608060405234801561001057600080fd5b50600436106100b35760003560e01c80638da5cb5b116100715780638da5cb5b1461017e578063c487da79146101a9578063e62ce7ac146101bc578063e89cc997146101c5578063f5be3193146101ec578063f9e331eb146101f557600080fd5b80620bcccf146100b857806316b784fe146100de5780631c67494e1461011157806327258b221461012657806328b305c11461014b5780633d44035a1461016b575b600080fd5b6100cb6100c6366004610d24565b610208565b6040519081526020015b60405180910390f35b6101016100ec366004610d82565b60026020526000908152604090205460ff1681565b60405190151581526020016100d5565b61012461011f366004610d82565b61023b565b005b610101610134366004610da4565b600090815260016020526040902060030154151590565b61015e610159366004610d82565b6102e3565b6040516100d59190610e03565b610124610179366004610e16565b61037d565b600054610191906001600160a01b031681565b6040516001600160a01b0390911681526020016100d5565b6101246101b7366004610da4565b610680565b6100cb60055481565b6101d86101d3366004610da4565b610868565b6040516100d5989796959493929190610eba565b6100cb60045481565b610124610203366004610f3e565b610b75565b6000828260405160200161021d929190610f91565b60405160208183030381529060405280519060200120905092915050565b6000546001600160a01b0316331461029a5760405162461bcd60e51b815260206004820181905260248201527f5361646563652073616869702062752069736c656d69207961706162696c697260448201526064015b60405180910390fd5b6001600160a01b038116600081815260026020526040808220805460ff19169055517f5f2c961a0db2d72fa01bfae36aaca642457678d9c63adaca86c8cb1b3d1230f49190a250565b600360205260009081526040902080546102fc90610fa1565b80601f016020809104026020016040519081016040528092919081815260200182805461032890610fa1565b80156103755780601f1061034a57610100808354040283529160200191610375565b820191906000526020600020905b81548152906001019060200180831161035857829003601f168201915b505050505081565b3360009081526002602052604090205460ff166103ac5760405162461bcd60e51b815260040161029190610fdb565b866103f15760405162461bcd60e51b81526020600482015260156024820152742430b9b4103232b3b2b9103137b99037b630b6b0bd60591b6044820152606401610291565b846104345760405162461bcd60e51b815260206004820152601360248201527224a823299021a4a2103137b99037b630b6b0bd60691b6044820152606401610291565b600087815260016020526040902060030154156104a15760405162461bcd60e51b815260206004820152602560248201527f42752068617368207a6174656e206b617969746c693a206d756874656d656c206044820152646b6f70796160d81b6064820152608401610291565b6040518060e0016040528088815260200187878080601f01602080910402602001604051908101604052809392919081815260200183838082843760009201829052509385525050336020808501919091524260408086019190915260608501939093528251601f8901829004820281018201909352878352608090930192889150879081908401838280828437600092019190915250505090825250604080516020601f8601819004810282018101909252848152918101919085908590819084018382808284376000920182905250939094525050898152600160208181526040909220845181559184015191925082019061059f908261108a565b5060408201516002820180546001600160a01b0319166001600160a01b0390921691909117905560608201516003820155608082015160048201805460ff191691151591909117905560a082015160058201906105fc908261108a565b5060c08201516006820190610611908261108a565b505060048054915060006106248361114a565b9190505550336001600160a01b0316877fc235983a0ed727809678f14268eb1ade4e8b679caa05e263ab15bde91572bf1f8888888888884260405161066f979695949392919061119a565b60405180910390a350505050505050565b3360009081526002602052604090205460ff166106af5760405162461bcd60e51b815260040161029190610fdb565b60008181526001602052604081206003015482910361071f5760405162461bcd60e51b815260206004820152602660248201527f4275206861736820696c65206b617969746c69206469706c6f6d612062756c756044820152656e616d61646960d01b6064820152608401610291565b6000828152600160205260409020600481015460ff16156107825760405162461bcd60e51b815260206004820152601b60248201527f4469706c6f6d61207a6174656e20697074616c206564696c6d697300000000006044820152606401610291565b60028101546001600160a01b03163314806107a757506000546001600160a01b031633145b6108085760405162461bcd60e51b815260206004820152602c60248201527f53616465636520766572656e206b7572756d207665796120736168697020697060448201526b3a30b61032b232b134b634b960a11b6064820152608401610291565b60048101805460ff19166001179055600580549060006108278361114a565b9091555050604051428152339084907f7d0b748b1116cd8c5729e7d4a3e463e7c75e0d0cca213bb02db56319a55758c39060200160405180910390a3505050565b60006060600060606000806060806000600160008b8152602001908152602001600020905080600301546000036108e45750506040805160208082018352600080835283518083018552818152845180840186528281528551938401909552818352909a50919850899750909550869450849350909150610b6a565b600481015460028201546001600160a01b031660008181526003602081905260409091209084015460018501805460ff909516801595919493929160058801906006890190879061093490610fa1565b80601f016020809104026020016040519081016040528092919081815260200182805461096090610fa1565b80156109ad5780601f10610982576101008083540402835291602001916109ad565b820191906000526020600020905b81548152906001019060200180831161099057829003601f168201915b505050505096508480546109c090610fa1565b80601f01602080910402602001604051908101604052809291908181526020018280546109ec90610fa1565b8015610a395780601f10610a0e57610100808354040283529160200191610a39565b820191906000526020600020905b815481529060010190602001808311610a1c57829003601f168201915b50505050509450818054610a4c90610fa1565b80601f0160208091040260200160405190810160405280929190818152602001828054610a7890610fa1565b8015610ac55780601f10610a9a57610100808354040283529160200191610ac5565b820191906000526020600020905b815481529060010190602001808311610aa857829003601f168201915b50505050509150808054610ad890610fa1565b80601f0160208091040260200160405190810160405280929190818152602001828054610b0490610fa1565b8015610b515780601f10610b2657610100808354040283529160200191610b51565b820191906000526020600020905b815481529060010190602001808311610b3457829003601f168201915b5050505050905098509850985098509850985098509850505b919395975091939597565b6000546001600160a01b03163314610bcf5760405162461bcd60e51b815260206004820181905260248201527f5361646563652073616869702062752069736c656d69207961706162696c69726044820152606401610291565b6001600160a01b038316610c165760405162461bcd60e51b815260206004820152600e60248201526d476563657273697a20616472657360901b6044820152606401610291565b80610c5a5760405162461bcd60e51b815260206004820152601460248201527325bab93ab69030b234903137b99037b630b6b0bd60611b6044820152606401610291565b6001600160a01b0383166000908152600260209081526040808320805460ff1916600117905560039091529020610c928284836111eb565b50826001600160a01b03167fa09ef0c5b609880c9223c311bcad10dca2e49107569bb3caee0288501ccda2cc8383604051610cce9291906112ac565b60405180910390a2505050565b60008083601f840112610ced57600080fd5b50813567ffffffffffffffff811115610d0557600080fd5b602083019150836020828501011115610d1d57600080fd5b9250929050565b60008060208385031215610d3757600080fd5b823567ffffffffffffffff811115610d4e57600080fd5b610d5a85828601610cdb565b90969095509350505050565b80356001600160a01b0381168114610d7d57600080fd5b919050565b600060208284031215610d9457600080fd5b610d9d82610d66565b9392505050565b600060208284031215610db657600080fd5b5035919050565b6000815180845260005b81811015610de357602081850181015186830182015201610dc7565b506000602082860101526020601f19601f83011685010191505092915050565b602081526000610d9d6020830184610dbd565b60008060008060008060006080888a031215610e3157600080fd5b87359650602088013567ffffffffffffffff80821115610e5057600080fd5b610e5c8b838c01610cdb565b909850965060408a0135915080821115610e7557600080fd5b610e818b838c01610cdb565b909650945060608a0135915080821115610e9a57600080fd5b50610ea78a828b01610cdb565b989b979a50959850939692959293505050565b60006101008a15158352806020840152610ed68184018b610dbd565b6001600160a01b038a16604085015283810360608501529050610ef98189610dbd565b905086608084015285151560a084015282810360c0840152610f1b8186610dbd565b905082810360e0840152610f2f8185610dbd565b9b9a5050505050505050505050565b600080600060408486031215610f5357600080fd5b610f5c84610d66565b9250602084013567ffffffffffffffff811115610f7857600080fd5b610f8486828701610cdb565b9497909650939450505050565b8183823760009101908152919050565b600181811c90821680610fb557607f821691505b602082108103610fd557634e487b7160e01b600052602260045260246000fd5b50919050565b6020808252602a908201527f5965746b6973697a206b7572756d3a206f6e6365207965746b696c656e6469726040820152696d6520676572656b6c6960b01b606082015260800190565b634e487b7160e01b600052604160045260246000fd5b601f82111561108557600081815260208120601f850160051c810160208610156110625750805b601f850160051c820191505b818110156110815782815560010161106e565b5050505b505050565b815167ffffffffffffffff8111156110a4576110a4611025565b6110b8816110b28454610fa1565b8461103b565b602080601f8311600181146110ed57600084156110d55750858301515b600019600386901b1c1916600185901b178555611081565b600085815260208120601f198616915b8281101561111c578886015182559484019460019091019084016110fd565b508582101561113a5787850151600019600388901b60f8161c191681555b5050505050600190811b01905550565b60006001820161116a57634e487b7160e01b600052601160045260246000fd5b5060010190565b81835281816020850137506000828201602090810191909152601f909101601f19169091010190565b6080815260006111ae60808301898b611171565b82810360208401526111c181888a611171565b905082810360408401526111d6818688611171565b91505082606083015298975050505050505050565b67ffffffffffffffff83111561120357611203611025565b611217836112118354610fa1565b8361103b565b6000601f84116001811461124b57600085156112335750838201355b600019600387901b1c1916600186901b1783556112a5565b600083815260209020601f19861690835b8281101561127c578685013582556020948501946001909201910161125c565b50868210156112995760001960f88860031b161c19848701351681555b505060018560011b0183555b5050505050565b6020815260006112c0602083018486611171565b94935050505056fea264697066735822122093225cdf46c1d8bfda71f15cd1aa2553342031d1b19cfc3abd73d6bfc0d9577864736f6c63430008130033",
  "linkReferences": {},
  "deployedLinkReferences": {}
}